:100000000C94B9050C94E1050C94E1050C94E10500
:100010000C94E1050C94E1050C94E1050C94E105C8
:100020000C94E1050C94E1050C949A110C940C12BB
:100030000C94E1050C94E1050C94E1050C94E105A8
:100040000C94E1050C9497080C94E1050C94E105DF
:100050000C94E1050C94E1050C94E1050C94AA07BD
:100060000C94E1050C94E1050C94E1050C94E10578
:100070000C94E1050C94E1050C94E1050C94E10568
:100080000C9435090C94E1050C94E1050C94E10500
:100090000C94E1050C94E1050C94E1050C94E10548
:1000A0000C94E1050C94E1050C94E1053F06420631
:1000B00031063506390663066306630646064A06B8
:1000C0004E065406580663065E06DA06DF06E406A8
:1000D000EE06F80642074207420702070C0716071A
:1000E00020072D0742073507F0F89C8E8783878EFF
:1000F0009CF8F00000FEFF0303030303070EFCF867
:100100000000FEFF0303030303070EFCF80000FFDB
:10011000FF00000000000000FFFF0000FEFF8383DF
:10012000838383C7EE7C380000F8FC0E07030303CB
:10013000070EFCF800003F7FE0C08080C0E07F3FFA
:10014000FFFF01010101010101FFFF0000FFFF0CA2
:100150000C0C0C1C3E77E3C100007FFFC0C0C0C088
:10016000C0E0703F1F00001F3F70E0C0C0C0E070E3
:100170003F1F00007FFFC1C1C1C1C1E3773E1C002A
:10018000001F3F70E0C0C0C0E0703F1F00000000D3
:100190000001FFFF01000000000000002400270014
:1001A0002A002D003000D5F08D14A1C881CFD9F1DF
:1001B000AF20001402130212021502070208020403
:1001C000010C0106010000000F0F0F0F0F0F0F0FA2
:1001D0000F0F0F3FFFFCF0C0000000000000000008
:1001E000000000000000000000000080C0E0703847
:1001F0001C0E0703000000000000000000000000CB
:1002000000000000000000000000000000000000EE
:1002100000000000000000000000000000000000DE
:1002200000000000000000000000000000000000CE
:1002300000000000000000000000000000000000BE
:100240000000000000030F3FFFFCF0C000000000B2
:1002500000000080C0E070381C0E070301000000A1
:10026000000000000000000000000000000000008E
:10027000000000000000000000000000000000007E
:10028000000000000000000000000000000000006E
:10029000000000000000000000000000000000005E
:1002A000000000000000000000000000000000004E
:1002B000000000000000000000030FBFFFFCF0F88A
:1002C0001C0E0703010000000000000000000000F9
:1002D000000000000000000000000000000000001E
:1002E000000000000000000000000000000000000E
:1002F00000000000000000000000000000000000FE
:1003000000003C3C3C3C00000000000000000000FD
:1003100000000000000000000000000000000000DD
:1003200000000080C0E070381C0E070301030F3F7F
:10033000FFFCF0C000000000000000000000000012
:100340000000000000000000C0C0C0C0C0C0C0C0AD
:10035000C0C0C0C0C0C00000C0C0C0C0C0C0C0C01D
:10036000C0C0C0C0C0C00000C0C0C0C0C0C0C0C00D
:10037000C0C0CFCFCFCF0000C0C0C0C0C0C0C0C0C1
:10038000C0C0C0C0C0C0000000000080C0E0703825
:100390001C0E070301000000000000000000000028
:1003A00000030F3FFFFCF0C0000000000000000051
:1003B0000000000000000000F3F3F3F30303030365
:1003C0000303030303030000F3F3F3F30303030343
:1003D0000303F3F3F3F30000F3F3F3F30303030373
:1003E0000303F3F3F3F30000F3F3F3F3F3F3F3F3A3
:1003F000F3F3F3F3F3F300000C0E07030100000026
:1004000000000000000000000000000000000000EC
:100410000000000000030F3F3F3C3C3C3C3C3C3CA8
:100420003C3C3C3C000000003C3C3C3C3C3C3C3CFC
:100430003C3C3C3C3C3C00003C3C3C3C3C3C3C3C74
:100440003C3C3C3C3C3C00003C3C3C3C3C3C3C3C64
:100450003C3C3C3C3C3C00003C3C3C3C3C3C3C3C54
:100460003C3C3C3C3C3C45524541534520444F4E6E
:100470004500574F524B494E472E2E2E00535441A4
:100480005254203D205249474854202B20420045D9
:100490005245415345204849474853434F52453FF1
:1004A0000050415553450020002000505245535301
:1004B00020464952452100534E414B450000000063
:1004C00000003E5B4F5B3E3E6B4F6B3E1C3E7C3EF6
:1004D0001C183C7E3C181C577D571C1C5E7F5E1C04
:1004E00000183C1800FFE7C3E7FF0018241800FFBE
:1004F000E7DBE7FF30483A060E2629792926407FB8
:10050000050507407F05253F5A3CE73C5A7F3E1CC6
:100510001C08081C1C3E7F14227F22145F5F005FB2
:100520005F06097F017F006689956A606060606090
:1005300094A2FFA29408047E040810207E201008D4
:10054000082A1C08081C2A08081E101010100C1E6F
:100550000C1E0C30383E3830060E3E0E06000000F1
:10056000000000005F00000007000700147F147FF8
:1005700014242A7F2A122313086462364956205015
:100580000008070300001C2241000041221C002A31
:100590001C7F1C2A08083E080800807030000808EC
:1005A000080808000060600020100804023E51495D
:1005B000453E00427F400072494949462141494D2C
:1005C000331814127F1027454545393C4A494931B3
:1005D00041211109073649494936464949291E0032
:1005E00000140000004034000000081422411414DC
:1005F000141414004122140802015909063E415DF9
:10060000594E7C1211127C7F494949363E41414185
:10061000227F4141413E7F494949417F0909090102
:100620003E414151737F0808087F00417F4100200F
:1006300040413F017F081422417F404040407F02FB
:100640001C027F7F0408107F3E4141413E7F090923
:1006500009063E4151215E7F09192946264949492B
:100660003203017F01033F4040403F1F2040201FD5
:100670003F4038403F631408146303047804036167
:1006800059494D43007F4141410204081020004177
:1006900041417F0402010204404040404000030702
:1006A000080020545478407F284444383844444457
:1006B00028384444287F385454541800087E0902CE
:1006C00018A4A49C787F0804047800447D4000208E
:1006D00040403D007F1028440000417F40007C04E2
:1006E0007804787C080404783844444438FC18249E
:1006F000241818242418FC7C080404084854545472
:100700002404043F44243C4040207C1C2040201C06
:100710003C4030403C44281028444C9090907C440D
:1007200064544C440008364100000077000000414A
:1007300036080002010204023C2623263C1EA1A129
:1007400061123A4040207A38545455592155557910
:1007500041215454784121555478402054557940D2
:100760000C1E527212395555555939545454593931
:10077000555454580000457C410002457D4200011B
:10078000457C40F0292429F0F0282528F07C545598
:1007900045002054547C547C0A097F493249494918
:1007A000323248484832324A4848303A4141217A48
:1007B0003A42402078009DA0A07D39444444393D10
:1007C0004040403D3C24FF2424487E4943662B2F73
:1007D000FC2F2BFF0929F620C0887E0903205454E2
:1007E00079410000447D413048484A323840402237
:1007F0007A007A0A0A727D0D19317D2629292F285F
:10080000262929292630484D40203808080808089C
:10081000080808382F10C8ACBA2F102834FA000086
:100820007B000008142A142222142A14089500229E
:100830000095AA005500AAAA55AA55AA000000FFD3
:1008400000101010FF00141414FF001010FF00FF20
:100850001010F010F0141414FC001414F700FF0032
:1008600000FF00FF1414F404FC141417101F1010E0
:100870001F101F1414141F00101010F000000000AF
:100880001F101010101F10101010F010000000FFAB
:10089000101010101010101010FF10000000FF14A6
:1008A0000000FF00FF00001F10170000FC04F414FC
:1008B000141710171414F404F40000FF00F71414B4
:1008C0001414141414F700F7141414171410101F30
:1008D000101F141414F4141010F010F000001F1066
:1008E0001F0000001F14000000FC140000F010F0B6
:1008F0001010FF10FF141414FF141010101F00002C
:100900000000F010FFFFFFFFFFF0F0F0F0F0FFFF3E
:10091000FF0000000000FFFF0F0F0F0F0F384444CF
:1009200038447C2A2A3E147E02020606027E027E9B
:100930000263554941633844443C04407E201E20F4
:1009400006027E020299A5E7A5991C2A492A1C4C99
:100950007201724C304A4D4D303048784830BC629C
:100960005A463D3E494949007E0101017E2A2A2A14
:100970002A2A44445F444440514A444040444A5136
:10098000400000FF0103E080FF000008086B6B08D7
:100990003612362436060F090F060000181800001C
:1009A000001010003040FF0101001F01011E00195E
:1009B0001D1712003C3C3C3C0000000000060115E5
:1009C00001260137014A015D01720188019F01B8CA
:1009D00001D201EE010B022A024B026E029302BA0F
:1009E00002E40210033F037003A403DC0317045561
:1009F000049704DD0427057505C80520067D06E07B
:100A0000064907B8072D08A9082D09B9094D0AEAB2
:100A10000A900B400CFA0CC00D910E6F0F5A105338
:100A2000115B1272139A14D41520178018F51980CF
:100A30001B231DDE1EB420A622B524E4263429A7DC
:100A40002B402E0031EA330037453ABC3D68414C1B
:100A5000456B49C84D68524F57805C0062101112B7
:100A600013151617181A1C1D1F21232527292C2E94
:100A70003134373A3E4145494E52575C62686E7593
:100A80007B838B939CA5AFB9C4D0DCE9F700000051
:100A90000200090F0000030401000C000000000028
:100AA0000000000000000000000000000408020137
:100AB00010408040102040804080080204018040A7
:100AC000201002011080102040402000000000256E
:100AD0000028002B002E0031000404040404030449
:100AE00005020202020403020202020606060606CC
:100AF00006040402020204040301080B00020202BD
:100B00000100090400000102020000052400100198
:100B1000052401010104240206052406000107053D
:100B2000810310004009040100020A0000000705CB
:100B3000020240000007058302400000040309048C
:100B400012010002EF020140412336800001010240
:100B5000030141726475696E6F204C4C4300417211
:100B60006475696E6F204C656F6E6172646F000012
:100B7000B11C11241FBECFEFDAE0DEBFCDBF11E004
:100B8000A0E0B1E0E4EBFBE302C005900D92AA35D2
:100B9000B107D9F728E0AAE5B1E001C01D92AF3056
:100BA000B207E1F715E0C9EBD5E004C02197FE01DB
:100BB0000E94CD1DC83BD107C9F70E943C140C947C
:100BC000D81D0C940000CF92DF92EF92FF920F930A
:100BD0001F93CF93DF936C017A018B01C0E0D0E0CB
:100BE000CE15DF0589F0D8016D918D01D601ED910B
:100BF000FC910190F081E02DC6010995892B11F43B
:100C00007E0102C02196ECCFC701DF91CF911F91E9
:100C10000F91FF90EF90DF90CF900895089580E0BE
:100C200090E008950E94D31D362F90E0FC01E35719
:100C3000F54F4491FC01E455F54F2491FC01E75236
:100C4000F54F8491882309F451C04423E1F150E029
:100C5000FA013197EF30F105B0F5EA5AFF4F0C94E5
:100C6000CD1D909180009F7707C0909180009F7D5F
:100C700003C090918000977F9093800024C094B52A
:100C80009F7702C094B59F7D94BD1DC09091900048
:100C90009F7707C0909190009F7D03C09091900036
:100CA000977F909390000FC09091C0009F7703C0F2
:100CB0009091C0009F7D9093C00005C09091C200AC
:100CC000977F9093C200E82FF0E0EE0FFF1FE553EF
:100CD000F54FA591B4918FB7F894EC91311103C001
:100CE00020952E2301C02E2B2C938FBF0895CF93D8
:100CF000DF9390E0FC01E455F54F2491FC01E752AD
:100D0000F54F8491882361F190E0880F991FFC01D1
:100D1000E856FE4FC591D491FC01E553F54FA591DE
:100D2000B491611109C09FB7F894888120958223FE
:100D30008883EC912E230BC0623061F49FB7F89446
:100D40003881822F809583238883EC912E2B2C93DE
:100D50009FBF06C08FB7F894E8812E2B28838FBFE2
:100D6000DF91CF9108951F93CF93DF93182FEB015D
:100D700061E00E947706209711F460E004C0CF3F45
:100D8000D10539F461E0812FDF91CF911F910C944F
:100D90001406E12FF0E0E357F54FE4914E2F50E0B9
:100DA000FA013197EF30F10508F06CC0EB59FF4FB5
:100DB0000C94CD1D84B5806884BDC7BD68C084B562
:100DC000806284BDC8BD63C08091800080688093CC
:100DD0008000D0938900C093880059C08091800022
:100DE000806280938000D0938B00C0938A004FC0B4
:100DF00080918000886080938000D0938D00C093A4
:100E00008C0045C080919000806880939000D093C2
:100E10009900C09398003BC08091900080628093BD
:100E20009000D0939B00C0939A0031C080919000B5
:100E3000886080939000D0939D00C0939C0027C051
:100E40008091C00080688093C0008091C0008F7B3B
:100E50008093C000C093CF001AC08091C000806210
:100E60008093C000C093D00012C08091C2008860FF
:100E70008093C2008091C2008B7F8093C200C09398
:100E8000D20005C0C038D1050CF07CCF76CFDF9101
:100E9000CF911F9108953FB7F89480917D03909171
:100EA0007E03A0917F03B091800326B5A89B05C067
:100EB0002F3F19F00196A11DB11D3FBFBA2FA92FD9
:100EC000982F8827820F911DA11DB11DBC01CD0156
:100ED00042E0660F771F881F991F4A95D1F7089542
:100EE0008F929F92AF92BF92CF92DF92EF92FF923A
:100EF0006B017C010E944B074B015C01C114D104C2
:100F0000E104F104F1F00E944B07DC01CB018819E8
:100F10009909AA09BB09883E9340A105B10570F360
:100F200021E0C21AD108E108F10888EE880E83E0BA
:100F3000981EA11CB11CC114D104E104F10419F7DD
:100F4000DDCFFF90EF90DF90CF90BF90AF909F905C
:100F50008F9008951F920F920FB60F9211242F9326
:100F60003F938F939F93AF93BF9380915B01909139
:100F70005C01A0915D01B0915E0130917C0323E0A2
:100F8000230F2D3720F40196A11DB11D05C026E8C1
:100F9000230F0296A11DB11D20937C0380935B015A
:100FA00090935C01A0935D01B0935E0180917D03FD
:100FB00090917E03A0917F03B09180030196A11DC3
:100FC000B11D80937D0390937E03A0937F03B09324
:100FD0008003BF91AF919F918F913F912F910F907F
:100FE0000FBE0F901F9018958FB12CB193B130E0C8
:100FF0002095309520743327A90123E05595479516
:101000002A95E1F7292F30E020953095207133277C
:101010003595279535952795242B8095807F822BB4
:101020000895FC0121912EBD9C5F21910DB407FE16
:10103000FDCF2EBDE817F907C1F70DB407FEFDCFB0
:101040000895CF92DF92EF92FF920F931F93CF9369
:10105000E82FF0E0E850F54FC491E62FF0E0603360
:1010600030F4E35AF54FE4910E2F10E006C0EE0F76
:10107000FF1FE35AF64F059114916801E12CF12C02
:1010800060E074E284EF90E0A70196010E94561D93
:10109000BA01A90141505109610971094115510570
:1010A00081E06807710580F060E970ED83E090E011
:1010B000A70196010E94561DBA01A901415051098C
:1010C0006109710983E001C081E0C130C9F0C3301A
:1010D00031F590919100987F892B809391005093E6
:1010E00099004093980010937B0300937A0381E06A
:1010F00080937903809171008260809371000FC0AA
:1011000090918100987F892B809381005093890072
:101110004093880080916F00826080936F00CF9130
:101120001F910F91FF90EF90DF90CF9008951F9245
:101130000F920FB60F9211242F933F938F939F938B
:10114000AF93BF93EF93FF9380919003882309F4AB
:101150004DC080918C0390918D03A0918E03B0912E
:101160008F03892B8A2B8B2B51F180918803E0917F
:101170008903F0918A0390818927808380918C0371
:1011800090918D03A0918E03B0918F0318161906CC
:101190001A061B06A4F580918C0390918D03A091F3
:1011A0008E03B0918F030197A109B10980938C033D
:1011B00090938D03A0938E03B0938F0320C0109261
:1011C000900380916F008D7F80936F0090918803D2
:1011D000E0918903F0918A038081282F30E0892FE4
:1011E00090E0809590958223932308C08091880396
:1011F000E0918903F0918A03908189278083FF9190
:10120000EF91BF91AF919F918F913F912F910F904F
:101210000FBE0F901F901895E82FF0E0E850F54FA3
:10122000E491E13019F0E33069F0089580916F00A6
:101230008D7F80936F0090918803E0918903F091F6
:101240008A0308C01092790390918503E091860388
:10125000F09187038081282F30E0892F90E08095DE
:10126000909582239323808308951F920F920FB647
:101270000F9211242F933F934F935F936F937F931C
:101280008F939F93AF93BF93EF93FF9380917903D5
:10129000882349F080918503E0918603F0918703CC
:1012A00090818927808380915A01882309F493C013
:1012B0008091750390917603A0917703B0917803A4
:1012C000892B8A2B8B2B09F486C080917503909112
:1012D0007603A0917703B09178030197A109B10932
:1012E0008093750390937603A0937703B09378036C
:1012F000892B8A2B8B2B09F06EC0E0917303F09140
:101300007403BF016F5F7F4F709374036093730327
:101310004491942F907F842F8F70903819F40E94FD
:101320000C09EBCF903981F43296F0937403E0937B
:101330007303FB01649190918B038917F0F667FDAD
:10134000DCCF0E942108D9CF903E29F4109274037B
:1013500010927303D2CF903F19F410925A013BC000
:1013600097FDCBCF3296F0937403E0937303FB01A8
:10137000249130E0342BA0917A03B0917B030E943A
:10138000AA1D6C507E4F8F4F9F4F28EE33E040E0F8
:1013900050E00E94881D209375033093760340939C
:1013A0007703509378038091750390917603A09111
:1013B0007703B0917803892B8A2B8B2B61F481E022
:1013C00090E0A0E0B0E08093750390937603A09343
:1013D0007703B0937803FF91EF91BF91AF919F9105
:1013E0008F917F916F915F914F913F912F910F90CE
:1013F0000FBE0F901F9018956091630182E090E0FE
:101400000C94481D10926301E4E6F0E0808188604E
:101410008083E5E6F0E08081886080830895E4E6DB
:10142000F0E08081877F8083E5E6F0E08081877F40
:10143000808381E08093630108956038710518F519
:101440004034510500F5A42FA695A695A695B0E0C9
:1014500047705527B695BA2FAA27B795A7956A0F53
:101460007B1FFC01E60FF71F81E090E001C0880FB1
:101470004A95EAF7222319F09489892B03C08095B5
:1014800094898923848B08952F923F924F925F9283
:101490006F927F928F929F92AF92BF92CF92DF9284
:1014A000EF92FF920F931F93CF93DF93CDB7DEB7E9
:1014B0002A970FB6F894DEBF0FBECDBF6A3091F405
:1014C000FC01E85EFB4F408132972081318158E07A
:1014D000459F200D311D11243183208332971182C5
:1014E0001082C1C06D3009F4BEC09A878987885EBA
:1014F0009B4F9C838B83DC012C90E985FA85EA5E07
:10150000FB4F60807180E985FA85EC5EFB4FFA83C2
:10151000E9830081118100381105D4F0AB81BC81D1
:101520002C91422F50E0E981FA8180819181F6E08F
:101530002F9F800D911D1124A981BA818D939C93B9
:10154000E985FA85E75EFB4F208121115EC08BC0E3
:10155000B0E46B16710414F7C801E5E02E9E800D0F
:10156000911D112418161906CCF6422C512CC301DA
:10157000F8E02F9E800D911D11241816190674F69F
:1015800055E0659F900111243F832E83E12CF12CBF
:1015900085E0E816F10441F0EE81FF81EE0DFF1DBC
:1015A000E354FB4F349001C0312C630138E0932D9C
:1015B00091709D834801882D801B8215B0F45601DF
:1015C0008A2D8C19821568F42D81A501B4018985B5
:1015D0009A8538870E941D0AAFEFAA1ABA0A388581
:1015E000EFCFBFEF8B1A9B0AE6CF36943150C40C75
:1015F000D51C3111DCCFEFEFEE1AFE0A040D151DDC
:10160000F6E0EF16F10421F689CF6AEF640390014A
:10161000659F300D112420583F4F281739071CF5BE
:10162000A985BA85ED91FC9111970190F081E02D8B
:101630006AE0CD012A960FB6F894DEBF0FBECDBF8B
:10164000DF91CF911F910F91FF90EF90DF90CF909E
:10165000BF90AF909F908F907F906F905F904F90D2
:101660003F902F9009942A960FB6F894DEBF0FBED4
:10167000CDBFDF91CF911F910F91FF90EF90DF9041
:10168000CF90BF90AF909F908F907F906F905F9022
:101690004F903F902F9008950F931F93CF93DF9318
:1016A0008C01EB010E94401D8883C80101960E94B5
:1016B000401D8983CE01DF91CF911F910F91089535
:1016C0000C94401D8F929F92AF92BF92CF92DF9267
:1016D000EF92FF928EE1C82ED12CE12CF12C9EE0EE
:1016E000892E912CA12CB12C0E94321DA7019601AC
:1016F0000E94561DDC01CB010196A11DB11D682F72
:10170000660F660F609360010E94321DA50194016F
:101710000E94561DDC01CB010196A11DB11D682F51
:10172000660F660F60935F0120916001A091010137
:101730000A2E000CBB0BE6E6F1E080E090E030E022
:1017400070E08A179B078CF44081042E000C550B27
:101750002417350739F44181042E000C550B64170A
:10176000750711F201963296ECCFFF90EF90DF9063
:10177000CF90BF90AF909F908F90089583E080931B
:1017800061018093620120910101022E000C330B54
:1017900040E0842F90E0821793074CF4880F991F44
:1017A000FC01EA59FE4F108211824F5FF2CF83E0B5
:1017B0008093010184E18093660188E18093670151
:1017C00080936801809369019CE190936A01809302
:1017D0006B010E94620B10926501109264011092DD
:1017E000660308952FB7F89483E08093E900909101
:1017F000E800892F807295FF04C09091F20080E488
:10180000891B2FBF0895CF93DF931F92CDB7DEB70B
:101810006983DC01ED91FC910280F381E02D41E0D0
:1018200050E0BE016F5F7F4F09950F90DF91CF9120
:10183000089583E08093E9008091F200882319F0F5
:101840008AE38093E80008950E94F20B90E00895E7
:101850008F929F92AF92BF92CF92DF92EF92FF92C0
:101860000F931F93CF93DF935C016B017A018091FB
:101870000B01882309F45BC080918403882309F459
:1018800056C08091820380FF05C08091E000826095
:101890008093E000E70110E00AEF83E0882E9AE3EE
:1018A000992E2097D9F10E94F20B81110AC00150A4
:1018B00009F43DC061E070E080E090E00E947007B4
:1018C000F0CF282F30E0C217D3070CF48C2F4FB77E
:1018D000F8948092E9009091E80095FF1DC0282FB0
:1018E00030E0C21BD30BF601982F915020F081916C
:1018F0008093F100FACFC20ED31E112319F09092FB
:10190000E80009C08091E80085FD06C09092E800DB
:1019100011E0209709F010E04FBFC3CF1111C3CFE2
:101920005D9884E6809381031E141F0444F081E0D7
:1019300090E0F5019383828380E090E001C0C701CD
:10194000DF91CF911F910F91FF90EF90DF90CF909B
:10195000BF90AF909F908F900895009769F0FC0121
:1019600001900020E9F73197AF01481B590BBC01EA
:1019700081E993E00C94E30580E090E0089520E095
:1019800085EA93E0B22FB111BFEFFC010024B193BF
:10199000B193B193B1930394D1F70895EF92FF926D
:1019A0000F931F93CF93DF937C018B01040F111DC5
:1019B000EB0177FF0EC0C0E0D0E00BC0C217D30729
:1019C0007CF421E0AE01B70181E993E00E941D0A99
:1019D00021969801013411058CF320E430E0EECF1C
:1019E000DF91CF911F910F91FF90EF9008954F924B
:1019F0005F926F927F928F929F92AF92BF92CF929F
:101A0000DF92EF92FF92CF93DF93EC014A015B01EB
:101A100081E0809390032E01612C712C60E072E1D3
:101A20008AE790E0A30192010E94561D69017A01A4
:101A300081E0C81AD108E108F108C114D10481E09D
:101A4000E806F10488F068E478EE81E090E0A30114
:101A500092010E94561D69017A0181E0C81AD108DD
:101A6000E108F10883E001C081E090918100987F56
:101A7000982B9093810081149104A104B10471F01A
:101A8000DE01AA0FBB1FA50194010E94751D28EE5F
:101A900033E040E050E00E94881D03C02FEF3FEF8D
:101AA000A901D0928900C092880020938C033093C2
:101AB0008D0340938E0350938F0380916F0082605B
:101AC00080936F00DF91CF91FF90EF90DF90CF90E8
:101AD000BF90AF909F908F907F906F905F904F904E
:101AE00008955F926F927F928F929F92AF92BF9272
:101AF000CF92DF92EF92FF920F931F93CF93DF93DA
:101B0000EC018B017A01A901461B570B57FF03C05B
:101B1000519541955109C7018C1B9D0B97FF03C03F
:101B2000919581959109552453948417950714F044
:101B3000512C0AC09E2D8F2D7901292F382F9C2FD3
:101B40008D2FE801092F182FEC16FD0654F4902F65
:101B5000812F8901292F382F9C2F8D2FE701E92E06
:101B6000F82E37016C1A7D0A5901A01AB10AB7FE86
:101B700003C0B194A194B108630177FE03C08FEF55
:101B8000C81AD80AD594C7940217130714F08FEF18
:101B900001C081E0882E880F9908EC16FD06B4F08C
:101BA00021E0552019F0AE01B80102C0A801BE0124
:101BB00081E993E00E941D0ACA18DB08D7FE04C021
:101BC000080D191DC60CD71C2196E7CFDF91CF91C8
:101BD0001F910F91FF90EF90DF90CF90BF90AF904B
:101BE0009F908F907F906F905F900895E091910308
:101BF000F09192030190F081E02D682F81E993E04C
:101C000009948F929F92AF92BF920F931F93CF939D
:101C1000DF93CDB7DEB7A1970FB6F894DEBF0FBE46
:101C2000CDBF19A2423008F44AE08E010F5D1F4F6C
:101C3000842E912CA12CB12CA50194010E94881D09
:101C4000E62FB901CA0101501109EA3014F4E05D30
:101C500001C0E95CD801EC93232B242B252B61F7E1
:101C6000C8010E94AD0CA1960FB6F894DEBF0FBE5E
:101C7000CDBFDF91CF911F910F91BF90AF909F90FB
:101C80008F9008957F928F929F92AF92BF92CF9242
:101C9000DF92EF92FF920F931F93CF93DF937C011C
:101CA0008B01722E5C01A40EB11CEC0197FF02C0E7
:101CB000C0E0D0E06E01450181E8A816B1041CF037
:101CC00080E8882E912CC814D9045CF421E0A80186
:101CD000B60181E993E00E941D0A8FEFC81AD80A65
:101CE000EACF6801C70CD11C81E0C81AD108C81519
:101CF000D9054CF421E0A601BE0181E993E00E94E0
:101D00001D0A2196F4CF472DB801C7010E94CE0CC1
:101D1000472DB801C5010197DF91CF911F910F9118
:101D2000FF90EF90DF90CF90BF90AF909F908F90FB
:101D30007F900C94CE0C0F931F93CF93DF938C0165
:101D4000C0E0D0E0F801EC0FFD1F6491662371F054
:101D5000E0919103F09192030190F081E02D81E9EF
:101D600093E00995892B11F02196ECCFCE01DF91FC
:101D7000CF911F910F9108952F923F924F925F92B2
:101D80006F927F928F929F92AF92BF92CF92DF928B
:101D9000EF92FF920F931F93CF93DF93CDB7DEB7F0
:101DA00027970FB6F894DEBF0FBECDBFA22EB12C81
:101DB0009C012A0D3B1D37FDC1C0803891050CF0F8
:101DC000BDC09B01200F311D37FDB8C060347105C7
:101DD0000CF0B4C0DB0177FF04C0AA27BB27A61B09
:101DE000B70BA770BB279B0177FF02C0295F3F4F4E
:101DF000F3E035952795FA95E1F777FF08C0215074
:101E0000310968E070E04B018A1A9B0AD401402E28
:101E1000469446944694512C077019F00FEF401ADF
:101E2000500AB9017695762F662777956795680FE2
:101E3000791F420E531EE12CF12CE8E0F0E04F0137
:101E40008A1A9B0A9F828E822415350509F476C072
:101E50002830310509F472C02F3F0FEF30070CF422
:101E600063C03B0110E8610E711C8B010B5D1B4FC1
:101E70006C011B821A828A809B808A149B040CF05E
:101E800053C0E0E8CE16D10409F44EC0D7FC41C0DF
:101E90002F3FFFEF3F0709F44EC0EA81FB81EE0DB3
:101EA000FF1DE40FF51FE491480186189708860E80
:101EB000971E2E2E312CF1010A2E02C0EE0FFF1FAD
:101EC0000A94E2F7FD83EC83F4012080EC81FD812C
:101ED000E229FD83EC833C80F40130821097C9F045
:101EE00027303105B1F0EA81FB81EE0DFF1DE40FD3
:101EF000F51FE491F0E01F010E8002C03594279495
:101F00000A94E2F7F8019080F101E9294F01F80104
:101F10008082EA81FB813196FB83EA830F5F1F4F4A
:101F2000FFEFCF1ADF0AA7CF2F5F3F4FEA0CFB1C52
:101F300060587F4F89CF1097B1F6EBCF27960FB639
:101F4000F894DEBF0FBECDBFDF91CF911F910F91EF
:101F5000FF90EF90DF90CF90BF90AF909F908F90C9
:101F60007F906F905F904F903F902F900895CF9308
:101F7000DF9390918B03923009F46EC0C82F292F04
:101F800030E0F901E850F54FD491F901E954F84FE8
:101F900080839F5F90938B0361E00E947706D1302E
:101FA00019F0D33039F158C010928000109281009E
:101FB00080918100886080938100809181008160A0
:101FC000809381008C2F90E0FC01E752F54FE49163
:101FD000F0E0EE0FFF1FE553F54F2591349130935C
:101FE0008A0320938903FC01E455F54F8491809383
:101FF000880332C01092900010929100809191005D
:10200000886080939100809191008160809391001D
:102010008C2F90E0FC01E752F54FE491F0E0EE0FD9
:10202000FF1FE553F54F259134913093870320939B
:102030008603FC01E455F54F8491809385038091DC
:102040008B03882321F06CE380E00E94210880E06C
:10205000DF91CF910C940C09DF91CF910895FC0191
:1020600080918403811103C08FEF9FEF08959FB784
:10207000F89482E08093E9002091F20030E012169B
:10208000130614F421E030E02115310559F02898A9
:1020900084E6809383038091F10080838091F20035
:1020A000882319F09FBFC90108958BE68093E8004B
:1020B000F9CF8091AF0781110DC082E08093AB070B
:1020C00084E08093AC071092AE071092AD0781E0D8
:1020D0008093AF078BEA97E00895FC01848595858E
:1020E00097FD0BC09FB7F89482E08093E900809140
:1020F000F2009FBF90E0019608959FB7F89482E0A8
:102100008093E9008091F2009FBF90E00895409194
:102110000D0850910E0820910B0830910C084217C1
:102120005307B4F49091E8009570E1F39091E800C2
:1021300092FD19C08093F10080910D0890910E08D6
:1021400001968F739927892B19F48EEF8093E800FD
:1021500080910D0890910E08019690930E0880933F
:102160000D0881E0089580E00895CF92DF92EF920C
:10217000FF920F931F93CF93DF931F92CDB7DEB7DC
:10218000182F062FE42E862F880F8E5F99830E94CA
:10219000871083E00E948710F12EC12E9981D92EDD
:1021A0008C2D8F19801798F4F601E7FE02C08491F8
:1021B00001C080810E948710182F80E00E94871044
:1021C0008123FFEFCF1ADF0A8111EACF01C081E03E
:1021D0000F90DF91CF911F910F91FF90EF90DF90C3
:1021E000CF900895DF92EF92FF920F931F93CF93BA
:1021F000DF93D82E8A017B01E40EF51EEB01CE158C
:10220000DF0571F0D7FE03C0FE01849101C0888113
:102210000E94871021968111F2CF8FEF9FEF01C0AE
:10222000C801DF91CF911F910F91FF90EF90DF9048
:102230000895615030F02091F100FC012083019657
:10224000F8CF289884E6809383030895CF93DF9393
:102250001F92CDB7DEB7FC018485958597FD05C03B
:102260002FEF3FEF358724870BC0CE0101960E94E8
:102270002F10019719F4898190E002C08FEF9FEF32
:102280000F90DF91CF9108950F931F93CF93DF931A
:102290001F92CDB7DEB78C01FC018485958597FF31
:1022A0000EC0CE0101960E942F10019719F42981CA
:1022B00030E002C02FEF3FEFF80135872487F801A7
:1022C000848595850F90DF91CF911F910F9108958F
:1022D0000F931F93CF93DF931F92CDB7DEB782E0AA
:1022E000898342E450E06AEF7AE080E80E94F210CD
:1022F0000E945910DC0112960D911C911397011543
:10230000110569F0D801ED91FC910280F381E02D77
:10231000BE016F5F7F4FC801099597FF07C0898194
:102320000F90DF91CF911F910F910895F8010085D3
:102330001185E5CF1F920F920FB60F9211248F9344
:102340009F938091E1009091E100937F9093E10051
:1023500083FF0FC01092E90091E09093EB00109280
:10236000EC0092E39093ED001092840398E0909338
:10237000F00082FF20C093E09093E9009091F2007A
:10238000992319F09AE39093E8009091810399239F
:1023900039F090918103915090938103992389F1B1
:1023A00090918303992339F09091830391509093F6
:1023B0008303992341F184FF10C08091E2008E7E57
:1023C00081608093E2008091E1008F7E8093E10044
:1023D000809182038E7E806111C080FF16C0809143
:1023E000E2008E7E80618093E2008091E1008E7E2B
:1023F0008093E100809182038E7E816080938203CE
:1024000004C05D9ACDCF289AD6CF9F918F910F901F
:102410000FBE0F901F9018951F920F920FB60F923C
:102420001124CF92DF92EF92FF920F931F932F937D
:102430003F934F935F936F937F938F939F93AF934C
:10244000BF93EF93FF93CF93DF93CDB7DEB76C9736
:10245000DEBFCDBF1092E9008091E80083FFEDC19F
:1024600068E0CE0145960E94191182EF8093E80042
:102470008D8987FF05C09091E80090FFFCCF03C0D5
:102480009EEF9093E800982F907609F0C6C09E8941
:102490002F89188D91110CC0803829F480910A0879
:1024A0008093F10002C01092F1001092F10048C137
:1024B000422F50E0512B913051F4811141C14130F4
:1024C000510509F03DC180910A088D7F0BC0933002
:1024D00061F4811135C14130510509F031C180915C
:1024E0000A08826080930A082BC1953041F48091DC
:1024F000E80080FFFCCF20682093E30021C19630E4
:1025000009F05FC0EB8CFC8C1092E90010920E0871
:1025100010920D08123091F510920C0810920B08D1
:102520000E94681199E0BE016F5F7F4FDB01E92FC8
:102530001D92EA95E9F799831A8391E09E8390EAC8
:1025400098879AEF998720910D0830910E08275FA0
:102550003F4F3C832B838D831092E90010920E082D
:1025600010920D08F0920C08E0920B0849E050E040
:1025700080E00E94F2100E946811E2C0F0920C0804
:10258000E0920B080E945910DC011296ED90FC902D
:102590001397E114F10409F4C0C0D701ED91FC9147
:1025A0000480F581E02DBE016B5E7F4FC701099568
:1025B000009719F00CF0C4C0C7C0F701E084F184A3
:1025C000E8CF973009F4C0C0983021F481E08093BF
:1025D000F100B6C0993009F0B3C0837009F0B4C0FF
:1025E000E3E3F1E081E021E036E39081992361F0BB
:1025F0008093E9002093EB0091919093EC0030934D
:10260000ED008F5F873089F78EE78093EA001092A4
:10261000EA008F898093840393C08B8D9C8D1092E8
:10262000E90010920E0810920D0890930C08809308
:102630000B08898D811156C08E899D89913A59F474
:10264000813209F081C047E050E064E071E080E051
:102650000E94F21075C0913209F076C0833289F47D
:10266000888D90E0982F88272F89822BA0E0B0E0FA
:1026700080930C0190930D01A0930E01B0930F0174
:102680005FC0803269F48091E80082FFFCCF67E090
:1026900084E091E00E9419118BEF8093E80006C05E
:1026A000823209F04DC08F8980930B018091090817
:1026B000882319F0EEEFFAE002C0E0E0F8E0809144
:1026C000040190910501A0910601B0910701803BA2
:1026D0009440A105B10509F07BC080910B0180FFFA
:1026E00093C076C00E945910DC0112960D911C9186
:1026F00013970115110541F1D801ED91FC9101905D
:10270000F081E02DBE016B5E7F4FC80109958111FC
:1027100017C0F80100851185ECCF113009F44EC0C7
:10272000133091F48F89882309F445C0823081F4F5
:1027300040E860E18EE59BE00E94B510882321F01F
:102740008EEF8093E80079C081E28093EB0075C042
:10275000813029F440E86BE082E59BE0EDCF8330E7
:1027600099F70E945910DC011296ED90FC90139796
:102770008E010F5F1F4F6801E114F10479F0D7015A
:10278000ED91FC910680F781E02DB801C701099514
:10279000080F111DF701E084F184EECFD8011C92DF
:1027A000F60101900020E9F73197BF016C197D090E
:1027B00040E0C601C1CF6CE37BE002C060E47BE097
:1027C0006115710509F2FB01449150E080E840CFAA
:1027D0000FB6F894A895809160008861809360009E
:1027E000109260000FBEA895EE3F2AE0F20739F084
:1027F0008091FE0A9091FF0A91838083A1CF10926D
:10280000FF0A1092FE0A9CCFEE3F8AE0F80731F0F3
:10281000808191819093FF0A8093FE0A87E797E772
:10282000918380839BE088E10FB6F894A89580930C
:1028300060000FBE9093600083CF6C960FB6F89443
:10284000DEBF0FBECDBFDF91CF91FF91EF91BF9162
:10285000AF919F918F917F916F915F914F913F9138
:102860002F911F910F91FF90EF90DF90CF900F90DD
:102870000FBE0F901F901895CF93DF9300D01F923B
:10288000CDB7DEB7789484B5826084BD84B58160AD
:1028900084BD85B5826085BD85B5816085BD80912B
:1028A0006E00816080936E001092810080918100A3
:1028B000826080938100809181008160809381009B
:1028C000809180008160809380008091910082607F
:1028D000809391008091910081608093910080911C
:1028E00090008160809390008091C100846080930B
:1028F000C1008091C10082608093C1008091C100BD
:1029000081608093C1008091C30081608093C30087
:102910008091C00082608093C0008091C20081607D
:102920008093C20080917A00846080937A008091C5
:102930007A00826080937A0080917A00816080932F
:102940007A0080917A00806880937A0010928403E4
:1029500010920A08109282038091D70081608093C0
:10296000D70080EA8093D80089B5806189BD89B598
:10297000826089BD09B400FEFDCF61E070E080E0B7
:1029800090E00E9470078091D8008F7C80618093D6
:10299000D8008091E000807F8093E0008091E1008A
:1029A0008E7E8093E1008DE08093E200559A209A1C
:1029B000EEEFFFE7859194918B3F9C4D19F481E0F8
:1029C000809309081FB7F89480916703811127C08D
:1029D000EAEEFAE08491EDEBFAE09491E82FF0E072
:1029E000EE0FFF1FE856FE4FA591B491EC91E9233D
:1029F00021F461E081E10E94140661E081E10E941E
:102A000077068CB580618CBD8CB580648CBD61E02F
:102A10008FE00E94770661E080E10E947706809156
:102A200067038F5F809367031FBF03EB11E0F8011B
:102A300084910E5F1F4F31966491882319F00E9494
:102A40007706F5CF61E086E00E94140661E070E051
:102A500080E090E00E94700760E086E00E9414062B
:102A60006AE070E080E090E00E94700761E086E03C
:102A70000E941406E5EEFAE0E491F0E0EE0FFF1F8D
:102A8000E553F54F8591949190936D0380936C037A
:102A9000E8EBFAE0E491E0936B03EDEDFAE0E4910A
:102AA000F0E0EE0FFF1FE553F54F85919491909361
:102AB0006A0380936903E0EBFAE0E491E093680332
:102AC0008CB58C7F8CBD8DB581608DBDE0916C0324
:102AD000F0916D03908180916B03982B9083A0916E
:102AE0006903B0916A032C919091680390959223A9
:102AF0009C939081809589238083E6EAF1E021E030
:102B0000E33BF20749F084918EBD00000DB407FE4F
:102B1000FDCF8EB53196F3CFE0916903F0916A0352
:102B2000908180916803892B8083E0916C03F09100
:102B30006D03908180916B038095892380838091C0
:102B4000640081608093640080916400826080935F
:102B500064008091640080688093640080916400C8
:102B6000806480936400809165008160809365003B
:102B70000E94F40787FF1AC080E094E01EBC0000AA
:102B80000DB407FEFDCF2EB50197C1F760E070E0F0
:102B90008AE00E94B30660E070E08BE00E94B3061A
:102BA00060E070E089E00E94B306FFCF2EEEC22EF7
:102BB000DD24DA9418E1EE24EA94F12C812F8C19AB
:102BC000B701681B71098AE00E94B3066FEF70E0DD
:102BD0008BE00E94B3066FEF70E089E00E94B306BD
:102BE0000E94BF0C00E128E548EE50E0B60184E108
:102BF00090E00E94BC0E85EA93E00E9411086BE110
:102C000070E080E090E00E94700730EFC31206C0D1
:102C10006AEF70E080E090E00E9470078FEFC81AC2
:102C2000D80A99E1C916D10449F66EEE72E080E047
:102C300090E00E9470076FEF70E08AE00E94B30698
:102C40006FEF70E08BE00E94B3066FEF70E089E0F9
:102C50000E94B30685E00E94B70F8DE00E94B70F77
:102C600010925A0182E090E00E94401D81110E9462
:102C70000F0A85EA93E00E94110864EF71E080E09A
:102C800090E00E9470070E94BF0C00E320E746EC32
:102C900051E068E070E088E090E00E94BC0E85EAB8
:102CA00093E00E94110864EC79E080E090E00E94DB
:102CB00070078EE18093970381E280939A0380915D
:102CC00064008E7F8093640087EC80937C0080E2B8
:102CD00080937B0062E070E080E090E00E947007EB
:102CE00080917A00806480937A0080917A0086FDDA
:102CF000FCCFE0907800F0907900E094F0948EE5BD
:102D000080937C0062E070E080E090E00E947007B9
:102D100080917A00806480937A0080917A0086FDA9
:102D2000FCCF00917800109179000E944B079B0125
:102D3000AC012095309540955095009510950E9DCD
:102D4000D0010F9DB00D1E9DB00D11240E94751D68
:102D50006B017C010E944B076C0D7D1D8E1D9F1D1C
:102D6000611571058105910511F00E94371D809153
:102D7000640081608093640080916301882319F06E
:102D80000E940F0A02C00E94020A0E94BE0B88E342
:102D9000282E312C94E1E92EF12C809166038330AA
:102DA00029F48AE08093970384E604C08EE180933F
:102DB000970381E280939A032FB7F89480915B0187
:102DC00090915C01A0915D01B0915E012FBF2091B7
:102DD000A303222391F020919B03E82FE21BE093B1
:102DE000A40320919803309199032F5F3F4F3093B4
:102DF0009903209398031092A30340919F0350914D
:102E0000A0036091A1037091A20384179507A60700
:102E1000B7077CF4481B423008F44EC583B7817F66
:102E200083BF83B7816083BF889583B78E7F83BF5D
:102E300043C520919A03AC01BD01420F511D611D94
:102E4000711D40939F035093A0036093A10370935F
:102E5000A20380939B0390939C03A0939D03B09344
:102E60009E03DD24D394D092A3030E94BF0C8091D3
:102E70006603823009F412C230F4882369F081308D
:102E800009F450C0F3C4843009F44BC408F4BDC342
:102E9000853009F477C4EAC4F092A607E092A5074A
:102EA0000FE010E01093A8070093A70783E080933A
:102EB000A90787EB94E00E949B0E8FE190E090932E
:102EC000A6078093A50785E390E09093A8078093D9
:102ED000A707D092A9078091980390919903B80110
:102EE0000E94B91D892B29F4809103018D258093BF
:102EF000030180910301882321F08BEA94E00E9472
:102F00009B0E0E94F40782FF04C080910201811190
:102F1000DBC40E94F40783FF27C480910201811162
:102F2000D7C422C4E0910101EE0FFF0BEC59FE4F14
:102F3000908197FDA1C19181913408F09DC124E653
:102F400030E03093A6072093A50722E330E03093CA
:102F5000A8072093A7078093A90760916401709147
:102F6000650180E090E04AE00E94010E0E94F407B3
:102F700087FF05C08091000181110EC042C00E94F0
:102F8000F40784FDF7CF0E94F40785FDF3CF0E947C
:102F9000F40786FDEFCF35C0109200010E94F407C0
:102FA00087FD109262010E94F40784FF03C082E053
:102FB000809362010E94F40785FF03C081E0809343
:102FC00062010E94F40786FF03C083E080936201E0
:102FD00020916101822F022E000C990B3091620129
:102FE000831B910937FD939597FF03C091958195B8
:102FF0009109029711F420936201809162018093FC
:103000006101809198039091990366E070E00E94BD
:10301000B91D892B39F006E6602E01E0702E812C57
:10302000912CA1C081E08093000180910101082EC4
:10303000000C990B019716E6612E11E0712EF30139
:1030400020E030E032962817390754F44081DF0140
:1030500012974C93418111964C932F5F3F4FF2CFC3
:1030600020916201213001F154F4211125C0880F13
:10307000991FFC01EA59FE4F8181845013C0223010
:1030800051F02330C9F4880F991FFC01EA59FE4F13
:1030900080818C5F10C0880F991FFC01EA59FE4F98
:1030A00081818C5F818308C0880F991FFC01EA59D8
:1030B000FE4F8081845080834AE050E060E070E001
:1030C00088EC90E00E94F70CA12CB12C0AE010E0F3
:1030D0006EE1C62ED12C72E0972E80910101082E50
:1030E000000C990B0197A816B9060CF094CF880F25
:1030F000991FFC01EA59FE4F9081D3018C919813DE
:1031000025C0918111968C91981320C064EF71E0D5
:1031100080E090E00E9470070E94BF0C1093A60709
:103120000093A507D092A807C092A70789E391E072
:103130000E94AD0C85EA93E00E94110864EC79E0EE
:1031400080E090E00E94700790926603BFEFAB1A98
:10315000BB0AE2E06E0E711CC0CFBFEF8B1A9B0A58
:10316000E2E06E0E711C10910101E12F012E000CA6
:10317000FF0B8E169F06D4F4D3011196AC901197D5
:103180000A2C000CBB08CC9000E010E00C2C000CCA
:10319000DD08C8018C0D9D1D0F5F1F4F0530110507
:1031A000E1F244E0B5010E94CE0CF3CFEE0FFF1F19
:1031B000EC59FE4F90818091600198132EC091814F
:1031C00080915F01981329C044E650E060E070E010
:1031D0008BE092E00E94F70C1F5F10930101809139
:1031E0006401909165010496909365018093640158
:1031F0000E94620BE09101010E2E000CFF0BDF011B
:10320000AA0FBB1FAE59BE4F8C91EE0FFF1FEC599A
:10321000FE4F808311968C918183C0905F010C2CAE
:10322000000CDD0800916001002E000C110B24E061
:1032300042E0B601C80101960E94420E5601FFEF1E
:10324000AF1ABF0AC12CD12CC601800F911F2FEFDE
:10325000C21AD20A35E0C316D10429F042E0B50102
:103260000E94CE0CF1CF20E440E860E070E080E006
:1032700090E00E94420E09C068EB7BE080E090E0A5
:103280000E94700782E0809366030E94F40783FF28
:10329000EDC280910201811121C3E8C294E6C92EDA
:1032A000D12C00E061E773E0C6010E944C0B8091D5
:1032B000710390917203019621F41092720310929F
:1032C00071032091640130916501809171039091A7
:1032D00072038217930708F08EC180E280936E0319
:1032E00080936F038093700310E071E2772EE0E328
:1032F0008E2EF1E49F2EA0E2DA2EBFE2BB2E8AE5ED
:10330000C82E0E94BF0CE0E1F0E0F093A607E09326
:10331000A5071092A8071092A70783E491E00E94E6
:10332000AD0C28E530E03093A6072093A507109256
:10333000A8071092A707609164017091650180E071
:1033400090E04AE00E94010E3092A6072092A50765
:10335000F092A807E092A70780916E030E94F60DF5
:1033600080E490E09093A6078093A507F092A807C9
:10337000E092A70780916F030E94F60DA8E4B0E0E9
:10338000B093A607A093A507F092A807E092A7071D
:10339000809170030E94F60D2BE130E04EE350E087
:1033A0006BE170E087E390E00E94710D2BE130E06B
:1033B00046E450E06BE170E08FE390E00E94710D15
:1033C0002BE130E04EE450E06BE170E087E490E008
:1033D0000E94710D812F012E000C990B079663E05E
:1033E000880F991F6A95E1F7AC014A5F5F4F2CE1A6
:1033F00030E06CE170E00E94710D66E970E080E001
:1034000090E00E9470070E94F40785FF04C080913D
:103410000201811169C20E94F40786FF04C08091F5
:103420000201811170C20E94F40784FF27C0812F1E
:10343000012E000C990BFC01E259FC4F2F01A080DA
:10344000A394A08246E950E060E070E08BE092E057
:103450000E94F70CF0E3AF1202C0D201DC92F2013D
:103460008081813209F49082D2018C918B3509F4EC
:103470008C92F2018081803409F470820E94F407FA
:1034800087FF29C0812F012E000C990B9C01225926
:103490003C4F2901D901AC90AA94AC9246E950E086
:1034A00060E070E08BE092E00E94F70CB0E2AB12BB
:1034B00003C08FE3F2018083D2018C918F3209F433
:1034C000CC92F20180818F3109F4B082D2018C91CB
:1034D000803409F4DC920E94F40783FF0BC01230A1
:1034E0004CF01F5F48EC50E060E070E086E194E053
:1034F0000E94F70C0E94F40785FD04C00E94F407A7
:1035000086FF10C285EA93E00E94110813300CF484
:10351000F8CE0B832B81B5E02B9F8001112438015D
:1035200034E6630E711C61E773E0C3010E944C0B2B
:103530008091710390917203019621F410927203AD
:10354000109271035801B6E6AB0EB11CC5010E9482
:10355000600B582E6801E7E6CE0ED11CC6010E9412
:10356000600B8A8308591F4FC8010E94600B482EC8
:1035700054E6852E51E0952ED4016D914D01C30185
:1035800069830E94401D6981681719F0C3010E9478
:10359000481DBFEF6B1A7B0A6A147B0469F76091C0
:1035A0006E03C3010E94481D60916F03C6010E9413
:1035B000481D60917003C8010E94481D80917103ED
:1035C00090917203909365018093640150926E0311
:1035D0002A8120936F03409270033B813F5F3B83BE
:1035E000373009F097CF80E280936E0380936F03AA
:1035F0008093700307C00F5F85E0C80ED11C0730B1
:1036000009F050CE0E94BE0B31C180E290E0909351
:10361000A6078093A5071092A8071092A7078EE42B
:1036200091E00E94AD0C812C912C5401839409E00F
:1036300010E034E6432E512C4EE1C42ED12C7724D9
:10364000739464E671E0C2010E944C0B80916401A6
:1036500090916501019621F4109265011092640128
:10366000C20102960E94600B80936E03C201039612
:103670000E94600B80936F03C20104960E94600B4E
:1036800080937003D092A607C092A5071093A80755
:103690000093A7077092A9074AE0C501B4010E94F0
:1036A000010E89EA94E00E949B0E80916E030E94B5
:1036B000F60D80916F030E94F60D809170030E94B9
:1036C000F60D87EA94E00E949B0E60916401709170
:1036D000650180E090E04AE00E94010E10926501D1
:1036E00010926401B5E04B0E511C085F1F4FEFEFC5
:1036F0008E1A9E0AAE0ABE0AF7E84F16510409F068
:10370000A0CF0E94F40785FF03C085E08093660385
:103710000E94F40783FFAAC080910201811106C1B3
:10372000A5C080E290E09093A6078093A5078EE164
:1037300090E09093A8078093A70782E08093A90761
:1037400081EA94E00E949B0E0E94F40782FF04C06D
:10375000809102018111EDC00E94F40783FF04C033
:10376000809102018111EAC00E94F40787FF05C021
:10377000809102018111E7C079C00E94F40784FDA5
:10378000F7CF74C00EE010E01093A6070093A507D2
:1037900080E290E09093A8078093A707D092A907B2
:1037A0008FE894E00E949B0E1093A6070093A50754
:1037B00088E290E09093A8078093A7078DE794E0B4
:1037C0000E949B0E0E94F4078474843409F04EC05A
:1037D0001092020184E6C82ED12C94E2A92EB12CBD
:1037E00000E210E00E94BF0CB092A607A092A507CD
:1037F0001093A8070093A70782E794E00E949B0E0E
:1038000085EA93E00E941108C6010E94401D8F3F87
:1038100021F06FEFC6010E94481D2FEFC21AD20A95
:1038200037E8C316D104F1F664EF71E080E090E070
:103830000E94700780E290E09093A6078093A5070E
:103840009093A8078093A7070E94BF0C86E694E098
:103850000E949B0E85EA93E00E94110868EE73E0D7
:1038600080E090E00E9470071092660380916301EF
:103870008823B9F022E042E06DE370E08CE790E04D
:103880000E94420E2EE330E04DE750E06BE370E023
:103890008DE790E00E94710D8091A307886080936E
:1038A000A30785EA93E00E9411080E94F4078C792F
:1038B00019F481E08093020180E090E0892B09F403
:1038C0006CCA0E94000069CA81E08093660321CB24
:1038D0001092020183E08093660346CF10920201AA
:1038E00084E080936603C2CF1092020148EC50E05E
:1038F00060E070E086E194E00E94F70C115017FF41
:103900008ACD10E088CD109202011F5F13300CF0B9
:1039100012E048EC50E060E070E086E194E00E9444
:10392000F70C81CD81E080930201ECCD1092020171
:103930009BCF10920201D09266030ECF109202012B
:103940000E94BE0B11CF1092020180916301882367
:1039500019F00E94020A02C00E940F0A0E94FC098C
:1039600085CFE9EBF7E01382128288EE93E0A0E0C6
:10397000B0E084839583A683B78388E191E0918347
:1039800080838FEF9FEF95878487E1E9F3E01382CF
:1039900012828AE291E0918380838CE3868380E1C6
:1039A00081871086178216861786108A118A128AD6
:1039B0001092A6071092A5071092A8071092A707C9
:1039C00081E08093A90708958F929F92AF92BF9252
:1039D000CF92DF92EF92FF92CF93DF93EC01688159
:1039E00079818A819B81611571058105910521F499
:1039F00064E279ED8BE597E02DE133EF41E050E0B3
:103A00000E94561D49015A019B01AC01A7EAB1E48D
:103A10000E94751D6B017C01ACEEB4EFA501940111
:103A20000E94831DDC01CB018C0D9D1DAE1DBF1DB1
:103A3000B7FF03C00197A109B04888839983AA837F
:103A4000BB83BC01CD019F77DF91CF91FF90EF90B9
:103A5000DF90CF90BF90AF909F908F9008950E947D
:103A6000E41C089580E191E00E94E41C08956093B5
:103A70001001709311018093120190931301089526
:103A8000F999FECF92BD81BDF89A992780B5089526
:103A9000262FF999FECF1FBA92BD81BD20BD0FB66A
:103AA000F894FA9AF99A0FBE01960895052E97FB9D
:103AB0001EF400940E946D1D57FD07D00E94881DC2
:103AC00007FC03D04EF40C946D1D50954095309535
:103AD00021953F4F4F4F5F4F08959095809570957A
:103AE00061957F4F8F4F9F4F08950E94AA1DA59FFC
:103AF000900DB49F900DA49F800D911D11240895E9
:103B0000B7FF0C94751D0E94751D821B930B0895C1
:103B1000A1E21A2EAA1BBB1BFD010DC0AA1FBB1FD1
:103B2000EE1FFF1FA217B307E407F50720F0A21B43
:103B3000B30BE40BF50B661F771F881F991F1A94B0
:103B400069F760957095809590959B01AC01BD01DA
:103B5000CF010895A29FB001B39FC001A39F700D34
:103B6000811D1124911DB29F700D811D1124911D85
:103B70000895AA1BBB1B51E107C0AA1FBB1FA617B4
:103B8000B70710F0A61BB70B881F991F5A95A9F706
:103B900080959095BC01CD010895EE0FFF1F059013
:103BA000F491E02D099481E090E0F8940C94D81DF4
:043BB000F894FFCFB7
:103BB4000103010100E1000000000000FFFFFFFF1E
:103BC4000100000000000000030C280C240C190C58
:103BD4006D102611441100000000440AE3050F068D
:103BE4000E0600C1808100000047414D45204F561C
:103BF400455200484947482053434F5245004849DD
:0A3C040047482053434F5245530038
:00000001FF
